{
  "contractName": "Bounties",
  "abi": [
    {
      "constant": true,
      "inputs": [],
      "name": "bountyCount",
      "outputs": [
        {
          "name": "",
          "type": "uint256"
        }
      ],
      "payable": false,
      "stateMutability": "view",
      "type": "function",
      "signature": "0x3e362c96"
    },
    {
      "constant": true,
      "inputs": [
        {
          "name": "",
          "type": "uint256"
        }
      ],
      "name": "bounties",
      "outputs": [
        {
          "name": "id",
          "type": "uint256"
        },
        {
          "name": "issuer",
          "type": "address"
        },
        {
          "name": "deadline",
          "type": "uint256"
        },
        {
          "name": "data",
          "type": "string"
        },
        {
          "name": "status",
          "type": "uint8"
        },
        {
          "name": "amount",
          "type": "uint256"
        }
      ],
      "payable": false,
      "stateMutability": "view",
      "type": "function",
      "signature": "0xdc2f8744"
    },
    {
      "inputs": [],
      "payable": false,
      "stateMutability": "nonpayable",
      "type": "constructor",
      "signature": "constructor"
    },
    {
      "anonymous": false,
      "inputs": [
        {
          "indexed": false,
          "name": "bounty_id",
          "type": "uint256"
        },
        {
          "indexed": false,
          "name": "issuer",
          "type": "address"
        },
        {
          "indexed": false,
          "name": "amount",
          "type": "uint256"
        },
        {
          "indexed": false,
          "name": "data",
          "type": "string"
        }
      ],
      "name": "BountyIssued",
      "type": "event",
      "signature": "0xba1576d8891bfe57a45ac4b986d4a4aa912c62f44771d4eec8ab2ce06e3be5b7"
    },
    {
      "anonymous": false,
      "inputs": [
        {
          "indexed": false,
          "name": "bounty_id",
          "type": "uint256"
        },
        {
          "indexed": false,
          "name": "fulfiller",
          "type": "address"
        },
        {
          "indexed": false,
          "name": "fulfillment_id",
          "type": "uint256"
        },
        {
          "indexed": false,
          "name": "data",
          "type": "string"
        }
      ],
      "name": "BountyFulfilled",
      "type": "event",
      "signature": "0xc4f0fe8da4c31907c5e6741ec9f6c2761aef2c6f0aa407d1f22b1420932631b3"
    },
    {
      "anonymous": false,
      "inputs": [
        {
          "indexed": false,
          "name": "bounty_id",
          "type": "uint256"
        },
        {
          "indexed": false,
          "name": "issuer",
          "type": "address"
        },
        {
          "indexed": false,
          "name": "fulfiller",
          "type": "address"
        },
        {
          "indexed": true,
          "name": "fulfillment_id",
          "type": "uint256"
        },
        {
          "indexed": false,
          "name": "amount",
          "type": "uint256"
        }
      ],
      "name": "FulfillmentAccepted",
      "type": "event",
      "signature": "0x85d45a4e923ea9b336558bcd434d3f474644affd5df115bba14b63e75425bde4"
    },
    {
      "anonymous": false,
      "inputs": [
        {
          "indexed": true,
          "name": "bounty_id",
          "type": "uint256"
        },
        {
          "indexed": true,
          "name": "issuer",
          "type": "address"
        },
        {
          "indexed": false,
          "name": "amount",
          "type": "uint256"
        }
      ],
      "name": "BountyCancelled",
      "type": "event",
      "signature": "0xb9670bf4f2273686f771c9ab65309436df5ed75afa63eefec8b67640d8bcf72c"
    },
    {
      "constant": false,
      "inputs": [
        {
          "name": "_data",
          "type": "string"
        },
        {
          "name": "_deadline",
          "type": "uint64"
        }
      ],
      "name": "issueBounty",
      "outputs": [
        {
          "name": "",
          "type": "uint256"
        }
      ],
      "payable": true,
      "stateMutability": "payable",
      "type": "function",
      "signature": "0xa3726253"
    },
    {
      "constant": false,
      "inputs": [
        {
          "name": "_bountyId",
          "type": "uint256"
        },
        {
          "name": "_data",
          "type": "string"
        }
      ],
      "name": "fulfillBounty",
      "outputs": [],
      "payable": false,
      "stateMutability": "nonpayable",
      "type": "function",
      "signature": "0x1e688c14"
    },
    {
      "constant": false,
      "inputs": [
        {
          "name": "_bountyId",
          "type": "uint256"
        },
        {
          "name": "_fulfillmentId",
          "type": "uint256"
        }
      ],
      "name": "acceptFulfillment",
      "outputs": [],
      "payable": false,
      "stateMutability": "nonpayable",
      "type": "function",
      "signature": "0xd9583497"
    },
    {
      "constant": false,
      "inputs": [
        {
          "name": "_bountyId",
          "type": "uint256"
        }
      ],
      "name": "cancelBounty",
      "outputs": [],
      "payable": false,
      "stateMutability": "nonpayable",
      "type": "function",
      "signature": "0xe5e5dff1"
    }
  ],
  "bytecode": "0x60806040526000805534801561001457600080fd5b5061115d806100246000396000f3fe608060405260043610610078576000357c0100000000000000000000000000000000000000000000000000000000900463ffffffff1680631e688c141461007d5780633e362c961461014f578063a37262531461017a578063d95834971461021b578063dc2f874414610260578063e5e5dff114610371575b600080fd5b34801561008957600080fd5b5061014d600480360360408110156100a057600080fd5b8101908080359060200190929190803590602001906401000000008111156100c757600080fd5b8201836020820111156100d957600080fd5b803590602001918460018302840111640100000000831117156100fb57600080fd5b91908080601f016020809104026020016040519081016040528093929190818152602001838380828437600081840152601f19601f8201169050808301925050505050505091929192905050506103ac565b005b34801561015b57600080fd5b506101646106bb565b6040518082815260200191505060405180910390f35b6102056004803603604081101561019057600080fd5b81019080803590602001906401000000008111156101ad57600080fd5b8201836020820111156101bf57600080fd5b803590602001918460018302840111640100000000831117156101e157600080fd5b9091929391929390803567ffffffffffffffff1690602001909291905050506106c1565b6040518082815260200191505060405180910390f35b34801561022757600080fd5b5061025e6004803603604081101561023e57600080fd5b810190808035906020019092919080359060200190929190505050610936565b005b34801561026c57600080fd5b506102996004803603602081101561028357600080fd5b8101908080359060200190929190505050610d3a565b604051808781526020018673ffffffffffffffffffffffffffffffffffffffff1673ffffffffffffffffffffffffffffffffffffffff168152602001858152602001806020018460028111156102eb57fe5b60ff168152602001838152602001828103825285818151815260200191508051906020019080838360005b83811015610331578082015181840152602081019050610316565b50505050905090810190601f16801561035e5780820380516001836020036101000a031916815260200191505b5097505050505050505060405180910390f35b34801561037d57600080fd5b506103aa6004803603602081101561039457600080fd5b8101908080359060200190929190505050610e4a565b005b81600180549050811015156103c057600080fd5b826001818154811015156103d057fe5b906000526020600020906006020160010160009054906101000a900473ffffffffffffffffffffffffffffffffffffffff1673ffffffffffffffffffffffffffffffffffffffff163373ffffffffffffffffffffffffffffffffffffffff161415151561043c57600080fd5b83600080600281111561044b57fe5b60018381548110151561045a57fe5b906000526020600020906006020160040160009054906101000a900460ff16600281111561048457fe5b14151561049057600080fd5b856001818154811015156104a057fe5b906000526020600020906006020160020154421015156104bf57600080fd5b600260008881526020019081526020016000206060604051908101604052806000151581526020013373ffffffffffffffffffffffffffffffffffffffff168152602001888152509080600181540180825580915050906001820390600052602060002090600202016000909192909190915060008201518160000160006101000a81548160ff02191690831515021790555060208201518160000160016101000a81548173ffffffffffffffffffffffffffffffffffffffff021916908373ffffffffffffffffffffffffffffffffffffffff16021790555060408201518160010190805190602001906105b592919061108c565b505050507fc4f0fe8da4c31907c5e6741ec9f6c2761aef2c6f0aa407d1f22b1420932631b387336001600260008c8152602001908152602001600020805490500389604051808581526020018473ffffffffffffffffffffffffffffffffffffffff1673ffffffffffffffffffffffffffffffffffffffff16815260200183815260200180602001828103825283818151815260200191508051906020019080838360005b8381101561067557808201518184015260208101905061065a565b50505050905090810190601f1680156106a25780820380516001836020036101000a031916815260200191505b509550505050505060405180910390a150505050505050565b60005481565b600080341115156106d157600080fd5b8167ffffffffffffffff1642811115156106ea57600080fd5b600160c06040519081016040528060005481526020013373ffffffffffffffffffffffffffffffffffffffff1681526020018567ffffffffffffffff16815260200187878080601f016020809104026020016040519081016040528093929190818152602001838380828437600081840152601f19601f8201169050808301925050505050505081526020016000600281111561078357fe5b815260200134815250908060018154018082558091505090600182039060005260206000209060060201600090919290919091506000820151816000015560208201518160010160006101000a81548173ffffffffffffffffffffffffffffffffffffffff021916908373ffffffffffffffffffffffffffffffffffffffff16021790555060408201518160020155606082015181600301908051906020019061082e92919061108c565b5060808201518160040160006101000a81548160ff0219169083600281111561085357fe5b021790555060a0820151816005015550505060008081548092919060010191905055507fba1576d8891bfe57a45ac4b986d4a4aa912c62f44771d4eec8ab2ce06e3be5b7600180805490500333348888604051808681526020018573ffffffffffffffffffffffffffffffffffffffff1673ffffffffffffffffffffffffffffffffffffffff168152602001848152602001806020018281038252848482818152602001925080828437600081840152601f19601f820116905080830192505050965050505050505060405180910390a160018080549050039150509392505050565b816001805490508110151561094a57600080fd5b828260026000838152602001908152602001600020805490508110151561097057600080fd5b8460018181548110151561098057fe5b906000526020600020906006020160010160009054906101000a900473ffffffffffffffffffffffffffffffffffffffff1673ffffffffffffffffffffffffffffffffffffffff163373ffffffffffffffffffffffffffffffffffffffff161415156109eb57600080fd5b8560008060028111156109fa57fe5b600183815481101515610a0957fe5b906000526020600020906006020160040160009054906101000a900460ff166002811115610a3357fe5b141515610a3f57600080fd5b8787600015156002600084815260200190815260200160002082815481101515610a6557fe5b906000526020600020906002020160000160009054906101000a900460ff161515141515610a9257600080fd5b6001600260008c81526020019081526020016000208a815481101515610ab457fe5b906000526020600020906002020160000160006101000a81548160ff0219169083151502179055506001808b815481101515610aec57fe5b906000526020600020906006020160040160006101000a81548160ff02191690836002811115610b1857fe5b0217905550600260008b815260200190815260200160002089815481101515610b3d57fe5b906000526020600020906002020160000160019054906101000a900473ffffffffffffffffffffffffffffffffffffffff1673ffffffffffffffffffffffffffffffffffffffff166108fc60018c815481101515610b9757fe5b9060005260206000209060060201600501549081150290604051600060405180830381858888f19350505050158015610bd4573d6000803e3d6000fd5b50887f85d45a4e923ea9b336558bcd434d3f474644affd5df115bba14b63e75425bde48b60018d815481101515610c0757fe5b906000526020600020906006020160010160009054906101000a900473ffffffffffffffffffffffffffffffffffffffff16600260008f81526020019081526020016000208d815481101515610c5957fe5b906000526020600020906002020160000160019054906101000a900473ffffffffffffffffffffffffffffffffffffffff1660018f815481101515610c9a57fe5b906000526020600020906006020160050154604051808581526020018473ffffffffffffffffffffffffffffffffffffffff1673ffffffffffffffffffffffffffffffffffffffff1681526020018373ffffffffffffffffffffffffffffffffffffffff1673ffffffffffffffffffffffffffffffffffffffff16815260200182815260200194505050505060405180910390a250505050505050505050565b600181815481101515610d4957fe5b90600052602060002090600602016000915090508060000154908060010160009054906101000a900473ffffffffffffffffffffffffffffffffffffffff1690806002015490806003018054600181600116156101000203166002900480601f016020809104026020016040519081016040528092919081815260200182805460018160011615610100020316600290048015610e275780601f10610dfc57610100808354040283529160200191610e27565b820191906000526020600020905b815481529060010190602001808311610e0a57829003601f168201915b5050505050908060040160009054906101000a900460ff16908060050154905086565b8060018054905081101515610e5e57600080fd5b81600181815481101515610e6e57fe5b906000526020600020906006020160010160009054906101000a900473ffffffffffffffffffffffffffffffffffffffff1673ffffffffffffffffffffffffffffffffffffffff163373ffffffffffffffffffffffffffffffffffffffff16141515610ed957600080fd5b826000806002811115610ee857fe5b600183815481101515610ef757fe5b906000526020600020906006020160040160009054906101000a900460ff166002811115610f2157fe5b141515610f2d57600080fd5b6002600186815481101515610f3e57fe5b906000526020600020906006020160040160006101000a81548160ff02191690836002811115610f6a57fe5b0217905550600185815481101515610f7e57fe5b906000526020600020906006020160010160009054906101000a900473ffffffffffffffffffffffffffffffffffffffff1673ffffffffffffffffffffffffffffffffffffffff166108fc600187815481101515610fd857fe5b9060005260206000209060060201600501549081150290604051600060405180830381858888f19350505050158015611015573d6000803e3d6000fd5b503373ffffffffffffffffffffffffffffffffffffffff16857fb9670bf4f2273686f771c9ab65309436df5ed75afa63eefec8b67640d8bcf72c60018881548110151561105e57fe5b9060005260206000209060060201600501546040518082815260200191505060405180910390a35050505050565b828054600181600116156101000203166002900490600052602060002090601f016020900481019282601f106110cd57805160ff19168380011785556110fb565b828001600101855582156110fb579182015b828111156110fa5782518255916020019190600101906110df565b5b509050611108919061110c565b5090565b61112e91905b8082111561112a576000816000905550600101611112565b5090565b9056fea165627a7a723058205e52aa3dd2d9dfc28681ccb12b1dea89297854c818a7d14ff273e49d4a7a181e0029",
  "source": "pragma solidity ^0.5.0;\n\n/**\n * @title Bounties\n * @author Joshua Cassidy- <joshua.cassidy@consensys.net>\n * @dev Simple smart contract which allows any user to issue a bounty in ETH linked to requirements stored in ipfs\n * which anyone can fufill by submitting the ipfs hash which contains evidence of their fufillment\n */\ncontract Bounties {\n\n  /*\n  * Enums\n  */\n\n  enum BountyStatus { CREATED, ACCEPTED, CANCELLED }\n\n  /*\n  * Storage\n  */\n  uint public bountyCount = 0;\n  Bounty[] public bounties;\n  \n  mapping(uint=>Fulfillment[]) fulfillments;\n\n  /*\n  * Structs\n  */\n\n  struct Bounty {\n      uint id;\n      address payable issuer;\n      uint deadline;\n      string data;\n      BountyStatus status;\n      uint amount; //in wei\n  }\n\n  struct Fulfillment {\n      bool accepted;\n      address payable fulfiller;\n      string data;\n  }\n\n  /**\n   * @dev Contructor\n   */\n  constructor() public {}\n\n  /**\n  * @dev issueBounty(): instantiates a new bounty\n  * @param _deadline the unix timestamp after which fulfillments will no longer be accepted\n  * @param _data the requirements of the bounty\n  */\n  function  issueBounty (\n      string calldata _data,\n      uint64 _deadline\n  )\n      external\n      payable\n      hasValue()\n      validateDeadline(_deadline)\n      returns (uint)\n  {\n      bounties.push(Bounty(bountyCount, msg.sender, _deadline, _data, BountyStatus.CREATED, msg.value));\n      bountyCount++;\n      emit BountyIssued(bounties.length - 1,msg.sender, msg.value, _data);\n      return (bounties.length - 1);\n  }\n\n  /**\n  * @dev fulfillBounty(): submit a fulfillment for the given bounty\n  * @param _bountyId the index of the bounty to be fufilled\n  * @param _data the ipfs hash which contains evidence of the fufillment\n  */\n  function fulfillBounty(uint _bountyId, string memory _data)\n    public\n    bountyExists(_bountyId)\n    notIssuer(_bountyId)\n    hasStatus(_bountyId, BountyStatus.CREATED)\n    isBeforeDeadline(_bountyId)\n  {\n    fulfillments[_bountyId].push(Fulfillment(false, msg.sender, _data));\n    emit BountyFulfilled(_bountyId, msg.sender, (fulfillments[_bountyId].length - 1),_data);\n  }\n\n  /**\n  * @dev acceptFulfillment(): accept a given fulfillment\n  * @param _bountyId the index of the bounty\n  * @param _fulfillmentId the index of the fulfillment being accepted\n  */\n  function acceptFulfillment(uint _bountyId, uint _fulfillmentId)\n      public\n      bountyExists(_bountyId)\n      fulfillmentExists(_bountyId,_fulfillmentId)\n      onlyIssuer(_bountyId)\n      hasStatus(_bountyId, BountyStatus.CREATED)\n      fulfillmentNotYetAccepted(_bountyId, _fulfillmentId)\n  {\n      fulfillments[_bountyId][_fulfillmentId].accepted = true;\n      bounties[_bountyId].status = BountyStatus.ACCEPTED;\n      fulfillments[_bountyId][_fulfillmentId].fulfiller.transfer(bounties[_bountyId].amount);\n      emit FulfillmentAccepted(_bountyId, bounties[_bountyId].issuer, fulfillments[_bountyId][_fulfillmentId].fulfiller, _fulfillmentId, bounties[_bountyId].amount);\n  }\n\n  /** @dev cancelBounty(): cancels the bounty and send the funds back to the issuer\n  * @param _bountyId the index of the bounty\n  */\n  function cancelBounty(uint _bountyId)\n      public\n      bountyExists(_bountyId)\n      onlyIssuer(_bountyId)\n      hasStatus(_bountyId, BountyStatus.CREATED)\n  {\n      bounties[_bountyId].status = BountyStatus.CANCELLED;\n      bounties[_bountyId].issuer.transfer(bounties[_bountyId].amount);\n      emit BountyCancelled(_bountyId, msg.sender, bounties[_bountyId].amount);\n  }\n\n  /**\n  * Modifiers\n  */\n\n  modifier hasValue() {\n      require(msg.value > 0);\n      _;\n  }\n\n  modifier bountyExists(uint _bountyId){\n    require(_bountyId < bounties.length);\n    _;\n  }\n\n  modifier fulfillmentExists(uint _bountyId, uint _fulfillmentId){\n    require(_fulfillmentId < fulfillments[_bountyId].length);\n    _;\n  }\n\n  modifier hasStatus(uint _bountyId, BountyStatus _desiredStatus) {\n    require(bounties[_bountyId].status == _desiredStatus);\n    _;\n  }\n\n  modifier onlyIssuer(uint _bountyId) {\n      require(msg.sender == bounties[_bountyId].issuer);\n      _;\n  }\n\n  modifier notIssuer(uint _bountyId) {\n      require(msg.sender != bounties[_bountyId].issuer);\n      _;\n  }\n\n  modifier fulfillmentNotYetAccepted(uint _bountyId, uint _fulfillmentId) {\n    require(fulfillments[_bountyId][_fulfillmentId].accepted == false);\n    _;\n  }\n\n  modifier validateDeadline(uint _newDeadline) {\n      require(_newDeadline > now);\n      _;\n  }\n\n  modifier isBeforeDeadline(uint _bountyId) {\n    require(now < bounties[_bountyId].deadline);\n    _;\n  }\n\n  /**\n  * Events\n  */\n  event BountyIssued(uint bounty_id, address issuer, uint amount, string data);\n  event BountyFulfilled(uint bounty_id, address fulfiller, uint fulfillment_id, string data);\n  event FulfillmentAccepted(uint bounty_id, address issuer, address fulfiller, uint indexed fulfillment_id, uint amount);\n  event BountyCancelled(uint indexed bounty_id, address indexed issuer, uint amount);\n\n}",
  "sourcePath": "/home/ssubik/Documents/Blockchain/Kauri/BountyReactBox/contracts/Bounties.sol",
  "compiler": {
    "name": "solc",
    "version": "0.5.0+commit.1d4f565a.Emscripten.clang"
  },
  "schemaVersion": "3.0.2",
  "updatedAt": "2020-01-09T16:25:25.203Z",
  "devdoc": {
    "author": "Joshua Cassidy- <joshua.cassidy@consensys.net>",
    "details": "Simple smart contract which allows any user to issue a bounty in ETH linked to requirements stored in ipfs which anyone can fufill by submitting the ipfs hash which contains evidence of their fufillment",
    "methods": {
      "acceptFulfillment(uint256,uint256)": {
        "details": "acceptFulfillment(): accept a given fulfillment",
        "params": {
          "_bountyId": "the index of the bounty",
          "_fulfillmentId": "the index of the fulfillment being accepted"
        }
      },
      "cancelBounty(uint256)": {
        "details": "cancelBounty(): cancels the bounty and send the funds back to the issuer",
        "params": {
          "_bountyId": "the index of the bounty"
        }
      },
      "constructor": {
        "details": "Contructor"
      },
      "fulfillBounty(uint256,string)": {
        "details": "fulfillBounty(): submit a fulfillment for the given bounty",
        "params": {
          "_bountyId": "the index of the bounty to be fufilled",
          "_data": "the ipfs hash which contains evidence of the fufillment"
        }
      },
      "issueBounty(string,uint64)": {
        "details": "issueBounty(): instantiates a new bounty",
        "params": {
          "_data": "the requirements of the bounty",
          "_deadline": "the unix timestamp after which fulfillments will no longer be accepted"
        }
      }
    },
    "title": "Bounties"
  },
  "userdoc": {
    "methods": {}
  }
}